{
  "contractName": "EthSwap",
  "abi": [
    {
      "inputs": [
        {
          "internalType": "contract Token",
          "name": "_token",
          "type": "address"
        }
      ],
      "stateMutability": "nonpayable",
      "type": "constructor"
    },
    {
      "anonymous": false,
      "inputs": [
        {
          "indexed": false,
          "internalType": "address",
          "name": "from",
          "type": "address"
        },
        {
          "indexed": false,
          "internalType": "address",
          "name": "tkn",
          "type": "address"
        },
        {
          "indexed": false,
          "internalType": "uint256",
          "name": "amount",
          "type": "uint256"
        },
        {
          "indexed": false,
          "internalType": "uint256",
          "name": "rate",
          "type": "uint256"
        }
      ],
      "name": "TokenPurchased",
      "type": "event"
    },
    {
      "inputs": [],
      "name": "name",
      "outputs": [
        {
          "internalType": "string",
          "name": "",
          "type": "string"
        }
      ],
      "stateMutability": "view",
      "type": "function",
      "constant": true
    },
    {
      "inputs": [],
      "name": "rate",
      "outputs": [
        {
          "internalType": "uint256",
          "name": "",
          "type": "uint256"
        }
      ],
      "stateMutability": "view",
      "type": "function",
      "constant": true
    },
    {
      "inputs": [],
      "name": "token",
      "outputs": [
        {
          "internalType": "contract Token",
          "name": "",
          "type": "address"
        }
      ],
      "stateMutability": "view",
      "type": "function",
      "constant": true
    },
    {
      "inputs": [],
      "name": "buyTokens",
      "outputs": [],
      "stateMutability": "payable",
      "type": "function",
      "payable": true
    }
  ],
  "bytecode": "0x60806040526040518060400160405280601e81526020017f457468657265756d205377617020496e7374616e742045786368616e676500008152506000908051906020019061004f9291906100ca565b50609660025534801561006157600080fd5b5060405161089238038061089283398181016040528101906100839190610182565b80600160006101000a81548173ffffffffffffffffffffffffffffffffffffffff021916908373ffffffffffffffffffffffffffffffffffffffff16021790555050610267565b8280546100d6906101ef565b90600052602060002090601f0160209004810192826100f8576000855561013f565b82601f1061011157805160ff191683800117855561013f565b8280016001018555821561013f579182015b8281111561013e578251825591602001919060010190610123565b5b50905061014c9190610150565b5090565b5b80821115610169576000816000905550600101610151565b5090565b60008151905061017c81610250565b92915050565b60006020828403121561019457600080fd5b60006101a28482850161016d565b91505092915050565b60006101b6826101cf565b9050919050565b60006101c8826101ab565b9050919050565b600073ffffffffffffffffffffffffffffffffffffffff82169050919050565b6000600282049050600182168061020757607f821691505b6020821081141561021b5761021a610221565b5b50919050565b7f4e487b7100000000000000000000000000000000000000000000000000000000600052602260045260246000fd5b610259816101bd565b811461026457600080fd5b50565b61061c806102766000396000f3fe60806040526004361061003f5760003560e01c806306fdde03146100445780632c4e722e1461006f578063d0febe4c1461009a578063fc0c546a146100a4575b600080fd5b34801561005057600080fd5b506100596100cf565b60405161006691906103dc565b60405180910390f35b34801561007b57600080fd5b5061008461015d565b60405161009191906103fe565b60405180910390f35b6100a2610163565b005b3480156100b057600080fd5b506100b9610289565b6040516100c691906103c1565b60405180910390f35b600080546100dc9061052e565b80601f01602080910402602001604051908101604052809291908181526020018280546101089061052e565b80156101555780601f1061012a57610100808354040283529160200191610155565b820191906000526020600020905b81548152906001019060200180831161013857829003601f168201915b505050505081565b60025481565b6000600254346101739190610435565b9050600160009054906101000a900473ffffffffffffffffffffffffffffffffffffffff1673ffffffffffffffffffffffffffffffffffffffff1663a9059cbb33836040518363ffffffff1660e01b81526004016101d2929190610398565b602060405180830381600087803b1580156101ec57600080fd5b505af1158015610200573d6000803e3d6000fd5b505050506040513d601f19601f8201168201806040525081019061022491906102c4565b507f8daf503382665d950e449b86172be5222275c90f4ddf69c29fdaa8237a562a6d33600160009054906101000a900473ffffffffffffffffffffffffffffffffffffffff168360025460405161027e9493929190610353565b60405180910390a150565b600160009054906101000a900473ffffffffffffffffffffffffffffffffffffffff1681565b6000815190506102be816105cf565b92915050565b6000602082840312156102d657600080fd5b60006102e4848285016102af565b91505092915050565b6102f68161048f565b82525050565b610305816104d7565b82525050565b600061031682610419565b6103208185610424565b93506103308185602086016104fb565b610339816105be565b840191505092915050565b61034d816104cd565b82525050565b600060808201905061036860008301876102ed565b61037560208301866102ed565b6103826040830185610344565b61038f6060830184610344565b95945050505050565b60006040820190506103ad60008301856102ed565b6103ba6020830184610344565b9392505050565b60006020820190506103d660008301846102fc565b92915050565b600060208201905081810360008301526103f6818461030b565b905092915050565b60006020820190506104136000830184610344565b92915050565b600081519050919050565b600082825260208201905092915050565b6000610440826104cd565b915061044b836104cd565b9250817fffffffffffffffffffffffffffffffffffffffffffffffffffffffffffffffff048311821515161561048457610483610560565b5b828202905092915050565b600061049a826104ad565b9050919050565b60008115159050919050565b600073ffffffffffffffffffffffffffffffffffffffff82169050919050565b6000819050919050565b60006104e2826104e9565b9050919050565b60006104f4826104ad565b9050919050565b60005b838110156105195780820151818401526020810190506104fe565b83811115610528576000848401525b50505050565b6000600282049050600182168061054657607f821691505b6020821081141561055a5761055961058f565b5b50919050565b7f4e487b7100000000000000000000000000000000000000000000000000000000600052601160045260246000fd5b7f4e487b7100000000000000000000000000000000000000000000000000000000600052602260045260246000fd5b6000601f19601f8301169050919050565b6105d8816104a1565b81146105e357600080fd5b5056fea26469706673582212202561fed3ca40e6a1b55e6bf80a65212da4166251062adecce7cc2a892bd8cdae64736f6c63430008000033",
  "immutableReferences": {},
  "source": "pragma solidity >=0.6.0 <0.9.0;\nimport \"./Token.sol\";\n\ncontract EthSwap{\n   //state variables\n   string public name = \"Ethereum Swap Instant Exchange\";\n   Token public token;\n\n   uint public rate = 150;\n\n   event TokenPurchased(\n      address from,\n      address tkn,\n      uint amount, \n      uint rate\n      );\n\n   //constructor\n   constructor (Token _token) public {\n      token = _token;\n   }\n\n   function buyTokens() public payable{\n      uint tokenAmt = msg.value * rate;\n      token.transfer(msg.sender, tokenAmt);\n\n      emit TokenPurchased(msg.sender, address(token) , tokenAmt, rate);\n   }\n\n   \n}",
  "sourcePath": "/Users/aysha/Desktop/coding_projects/cryptocurrency-DEX/contracts/EthSwap.sol",
  "compiler": {
    "name": "solc",
    "version": "0.8.0+commit.c7dfd78e.Emscripten.clang"
  },
  "schemaVersion": "3.4.4",
  "updatedAt": "2022-03-22T17:31:37.718Z",
  "networkType": "ethereum",
  "devdoc": {
    "kind": "dev",
    "methods": {},
    "version": 1
  },
  "userdoc": {
    "kind": "user",
    "methods": {},
    "version": 1
  }
}